{
  "_format": "hh-sol-artifact-1",
  "contractName": "ContData",
  "sourceName": "contracts/ContData/ContData.sol",
  "abi": [
    {
      "anonymous": false,
      "inputs": [
        {
          "indexed": true,
          "internalType": "address",
          "name": "previousOwner",
          "type": "address"
        },
        {
          "indexed": true,
          "internalType": "address",
          "name": "newOwner",
          "type": "address"
        }
      ],
      "name": "OwnershipTransferred",
      "type": "event"
    },
    {
      "anonymous": false,
      "inputs": [
        {
          "indexed": false,
          "internalType": "bytes32",
          "name": "tag",
          "type": "bytes32"
        },
        {
          "indexed": false,
          "internalType": "address",
          "name": "data",
          "type": "address"
        }
      ],
      "name": "SetAddress",
      "type": "event"
    },
    {
      "anonymous": false,
      "inputs": [
        {
          "indexed": false,
          "internalType": "bytes32",
          "name": "tag",
          "type": "bytes32"
        },
        {
          "indexed": false,
          "internalType": "bool",
          "name": "data",
          "type": "bool"
        }
      ],
      "name": "SetBool",
      "type": "event"
    },
    {
      "anonymous": false,
      "inputs": [
        {
          "indexed": false,
          "internalType": "bytes32",
          "name": "tag",
          "type": "bytes32"
        },
        {
          "indexed": false,
          "internalType": "bytes",
          "name": "data",
          "type": "bytes"
        }
      ],
      "name": "SetBytes",
      "type": "event"
    },
    {
      "anonymous": false,
      "inputs": [
        {
          "indexed": false,
          "internalType": "bytes32",
          "name": "tag",
          "type": "bytes32"
        },
        {
          "indexed": false,
          "internalType": "int256",
          "name": "data",
          "type": "int256"
        }
      ],
      "name": "SetInt",
      "type": "event"
    },
    {
      "anonymous": false,
      "inputs": [
        {
          "indexed": false,
          "internalType": "bytes32",
          "name": "tag",
          "type": "bytes32"
        },
        {
          "indexed": false,
          "internalType": "string",
          "name": "data",
          "type": "string"
        }
      ],
      "name": "SetString",
      "type": "event"
    },
    {
      "anonymous": false,
      "inputs": [
        {
          "indexed": false,
          "internalType": "bytes32",
          "name": "tag",
          "type": "bytes32"
        },
        {
          "indexed": false,
          "internalType": "uint256",
          "name": "data",
          "type": "uint256"
        }
      ],
      "name": "SetUint",
      "type": "event"
    },
    {
      "inputs": [
        {
          "internalType": "bytes32",
          "name": "tag",
          "type": "bytes32"
        }
      ],
      "name": "getAddress",
      "outputs": [
        {
          "internalType": "address",
          "name": "data",
          "type": "address"
        }
      ],
      "stateMutability": "view",
      "type": "function"
    },
    {
      "inputs": [
        {
          "internalType": "bytes32",
          "name": "tag",
          "type": "bytes32"
        }
      ],
      "name": "getBool",
      "outputs": [
        {
          "internalType": "bool",
          "name": "data",
          "type": "bool"
        }
      ],
      "stateMutability": "view",
      "type": "function"
    },
    {
      "inputs": [
        {
          "internalType": "bytes32",
          "name": "tag",
          "type": "bytes32"
        }
      ],
      "name": "getBytes",
      "outputs": [
        {
          "internalType": "bytes",
          "name": "data",
          "type": "bytes"
        }
      ],
      "stateMutability": "view",
      "type": "function"
    },
    {
      "inputs": [
        {
          "internalType": "bytes32",
          "name": "tag",
          "type": "bytes32"
        }
      ],
      "name": "getInt",
      "outputs": [
        {
          "internalType": "int256",
          "name": "data",
          "type": "int256"
        }
      ],
      "stateMutability": "view",
      "type": "function"
    },
    {
      "inputs": [
        {
          "internalType": "bytes32",
          "name": "tag",
          "type": "bytes32"
        }
      ],
      "name": "getString",
      "outputs": [
        {
          "internalType": "string",
          "name": "data",
          "type": "string"
        }
      ],
      "stateMutability": "view",
      "type": "function"
    },
    {
      "inputs": [
        {
          "internalType": "bytes32",
          "name": "tag",
          "type": "bytes32"
        }
      ],
      "name": "getUint",
      "outputs": [
        {
          "internalType": "uint256",
          "name": "data",
          "type": "uint256"
        }
      ],
      "stateMutability": "view",
      "type": "function"
    },
    {
      "inputs": [],
      "name": "owner",
      "outputs": [
        {
          "internalType": "address",
          "name": "",
          "type": "address"
        }
      ],
      "stateMutability": "view",
      "type": "function"
    },
    {
      "inputs": [],
      "name": "renounceOwnership",
      "outputs": [],
      "stateMutability": "nonpayable",
      "type": "function"
    },
    {
      "inputs": [
        {
          "internalType": "bytes32",
          "name": "tag",
          "type": "bytes32"
        },
        {
          "internalType": "address",
          "name": "data",
          "type": "address"
        }
      ],
      "name": "setAddress",
      "outputs": [],
      "stateMutability": "nonpayable",
      "type": "function"
    },
    {
      "inputs": [
        {
          "internalType": "bytes32",
          "name": "tag",
          "type": "bytes32"
        },
        {
          "internalType": "bool",
          "name": "data",
          "type": "bool"
        }
      ],
      "name": "setBool",
      "outputs": [],
      "stateMutability": "nonpayable",
      "type": "function"
    },
    {
      "inputs": [
        {
          "internalType": "bytes32",
          "name": "tag",
          "type": "bytes32"
        },
        {
          "internalType": "bytes",
          "name": "data",
          "type": "bytes"
        }
      ],
      "name": "setBytes",
      "outputs": [],
      "stateMutability": "nonpayable",
      "type": "function"
    },
    {
      "inputs": [
        {
          "internalType": "bytes32",
          "name": "tag",
          "type": "bytes32"
        },
        {
          "internalType": "int256",
          "name": "data",
          "type": "int256"
        }
      ],
      "name": "setInt",
      "outputs": [],
      "stateMutability": "nonpayable",
      "type": "function"
    },
    {
      "inputs": [
        {
          "internalType": "bytes32",
          "name": "tag",
          "type": "bytes32"
        },
        {
          "internalType": "string",
          "name": "data",
          "type": "string"
        }
      ],
      "name": "setString",
      "outputs": [],
      "stateMutability": "nonpayable",
      "type": "function"
    },
    {
      "inputs": [
        {
          "internalType": "bytes32",
          "name": "tag",
          "type": "bytes32"
        },
        {
          "internalType": "uint256",
          "name": "data",
          "type": "uint256"
        }
      ],
      "name": "setUint",
      "outputs": [],
      "stateMutability": "nonpayable",
      "type": "function"
    },
    {
      "inputs": [
        {
          "internalType": "address",
          "name": "newOwner",
          "type": "address"
        }
      ],
      "name": "transferOwnership",
      "outputs": [],
      "stateMutability": "nonpayable",
      "type": "function"
    }
  ],
  "bytecode": "0x608060405234801561001057600080fd5b5061179b806100206000396000f3fe608060405234801561001057600080fd5b50600436106100f55760003560e01c8063986e791a11610097578063ca446dd911610066578063ca446dd914610282578063dc97d9621461029e578063e2a4853a146102ce578063f2fde38b146102ea576100f5565b8063986e791a146101d6578063abfdcced14610206578063bd02d0f514610222578063c031a18014610252576100f5565b80636e899550116100d35780636e89955014610162578063715018a61461017e5780637ae1cfca146101885780638da5cb5b146101b8576100f5565b806321f8a721146100fa5780632e28d0841461012a5780633e49bed014610146575b600080fd5b610114600480360381019061010f9190610e2f565b610306565b6040516101219190610e9d565b60405180910390f35b610144600480360381019061013f9190610ffe565b610343565b005b610160600480360381019061015b9190611090565b610424565b005b61017c60048036038101906101779190611171565b6104f5565b005b6101866105d6565b005b6101a2600480360381019061019d9190610e2f565b61065e565b6040516101af91906111e8565b60405180910390f35b6101c0610688565b6040516101cd9190610e9d565b60405180910390f35b6101f060048036038101906101eb9190610e2f565b6106b2565b6040516101fd919061128b565b60405180910390f35b610220600480360381019061021b91906112d9565b610757565b005b61023c60048036038101906102379190610e2f565b61083b565b6040516102499190611332565b60405180910390f35b61026c60048036038101906102679190610e2f565b610858565b60405161027991906113a2565b60405180910390f35b61029c600480360381019061029791906113f0565b6108fd565b005b6102b860048036038101906102b39190610e2f565b610a08565b6040516102c5919061143f565b60405180910390f35b6102e860048036038101906102e39190611486565b610a25565b005b61030460048036038101906102ff91906114c6565b610af6565b005b60006068600083815260200190815260200160002060009054906101000a900473ffffffffffffffffffffffffffffffffffffffff169050919050565b61034b610bee565b73ffffffffffffffffffffffffffffffffffffffff16610369610688565b73ffffffffffffffffffffffffffffffffffffffff16146103bf576040517f08c379a00000000000000000000000000000000000000000000000000000000081526004016103b69061153f565b60405180910390fd5b80606a600084815260200190815260200160002090805190602001906103e6929190610cbc565b507f54cc8da5421639db2b73f1274ab4d83daf1dece25d4563b1f2b6559036f796e8828260405161041892919061156e565b60405180910390a15050565b61042c610bee565b73ffffffffffffffffffffffffffffffffffffffff1661044a610688565b73ffffffffffffffffffffffffffffffffffffffff16146104a0576040517f08c379a00000000000000000000000000000000000000000000000000000000081526004016104979061153f565b60405180910390fd5b8060676000848152602001908152602001600020819055507f48abdb84ef047cbb3f1f197c0e760737007cc8138a0fb18d6cbf23e90aec263c82826040516104e992919061159e565b60405180910390a15050565b6104fd610bee565b73ffffffffffffffffffffffffffffffffffffffff1661051b610688565b73ffffffffffffffffffffffffffffffffffffffff1614610571576040517f08c379a00000000000000000000000000000000000000000000000000000000081526004016105689061153f565b60405180910390fd5b80606960008481526020019081526020016000209080519060200190610598929190610d42565b507f60a811eca25d7271d31214fefe3ad82281ee98bbd8cd60870e8fb6289c4bd71b82826040516105ca9291906115c7565b60405180910390a15050565b6105de610bee565b73ffffffffffffffffffffffffffffffffffffffff166105fc610688565b73ffffffffffffffffffffffffffffffffffffffff1614610652576040517f08c379a00000000000000000000000000000000000000000000000000000000081526004016106499061153f565b60405180910390fd5b61065c6000610bf6565b565b60006065600083815260200190815260200160002060009054906101000a900460ff169050919050565b6000603360009054906101000a900473ffffffffffffffffffffffffffffffffffffffff16905090565b60606069600083815260200190815260200160002080546106d290611626565b80601f01602080910402602001604051908101604052809291908181526020018280546106fe90611626565b801561074b5780601f106107205761010080835404028352916020019161074b565b820191906000526020600020905b81548152906001019060200180831161072e57829003601f168201915b50505050509050919050565b61075f610bee565b73ffffffffffffffffffffffffffffffffffffffff1661077d610688565b73ffffffffffffffffffffffffffffffffffffffff16146107d3576040517f08c379a00000000000000000000000000000000000000000000000000000000081526004016107ca9061153f565b60405180910390fd5b806065600084815260200190815260200160002060006101000a81548160ff0219169083151502179055507f3b0490d2388b98265ff19374e42841f02752a50e4c90f27734b8025df1b8da81828260405161082f929190611658565b60405180910390a15050565b600060666000838152602001908152602001600020549050919050565b6060606a6000838152602001908152602001600020805461087890611626565b80601f01602080910402602001604051908101604052809291908181526020018280546108a490611626565b80156108f15780601f106108c6576101008083540402835291602001916108f1565b820191906000526020600020905b8154815290600101906020018083116108d457829003601f168201915b50505050509050919050565b610905610bee565b73ffffffffffffffffffffffffffffffffffffffff16610923610688565b73ffffffffffffffffffffffffffffffffffffffff1614610979576040517f08c379a00000000000000000000000000000000000000000000000000000000081526004016109709061153f565b60405180910390fd5b806068600084815260200190815260200160002060006101000a81548173ffffffffffffffffffffffffffffffffffffffff021916908373ffffffffffffffffffffffffffffffffffffffff1602179055507f77879ade5d0fc220756fdd6255178c5a1ad8e5ee2ae2970e8b2610242d38d8da82826040516109fc929190611681565b60405180910390a15050565b600060676000838152602001908152602001600020549050919050565b610a2d610bee565b73ffffffffffffffffffffffffffffffffffffffff16610a4b610688565b73ffffffffffffffffffffffffffffffffffffffff1614610aa1576040517f08c379a0000000000000000000000000000000000000000000000000000000008152600401610a989061153f565b60405180910390fd5b8060666000848152602001908152602001600020819055507f3aa955f7e4f799f5e41900177cf35c185dd3fadf36fafb7a5519aa91ce5fefa58282604051610aea9291906116aa565b60405180910390a15050565b610afe610bee565b73ffffffffffffffffffffffffffffffffffffffff16610b1c610688565b73ffffffffffffffffffffffffffffffffffffffff1614610b72576040517f08c379a0000000000000000000000000000000000000000000000000000000008152600401610b699061153f565b60405180910390fd5b600073ffffffffffffffffffffffffffffffffffffffff168173ffffffffffffffffffffffffffffffffffffffff161415610be2576040517f08c379a0000000000000000000000000000000000000000000000000000000008152600401610bd990611745565b60405180910390fd5b610beb81610bf6565b50565b600033905090565b6000603360009054906101000a900473ffffffffffffffffffffffffffffffffffffffff16905081603360006101000a81548173ffffffffffffffffffffffffffffffffffffffff021916908373ffffffffffffffffffffffffffffffffffffffff1602179055508173ffffffffffffffffffffffffffffffffffffffff168173ffffffffffffffffffffffffffffffffffffffff167f8be0079c531659141344cd1fd0a4f28419497f9722a3daafe3b4186f6b6457e060405160405180910390a35050565b828054610cc890611626565b90600052602060002090601f016020900481019282610cea5760008555610d31565b82601f10610d0357805160ff1916838001178555610d31565b82800160010185558215610d31579182015b82811115610d30578251825591602001919060010190610d15565b5b509050610d3e9190610dc8565b5090565b828054610d4e90611626565b90600052602060002090601f016020900481019282610d705760008555610db7565b82601f10610d8957805160ff1916838001178555610db7565b82800160010185558215610db7579182015b82811115610db6578251825591602001919060010190610d9b565b5b509050610dc49190610dc8565b5090565b5b80821115610de1576000816000905550600101610dc9565b5090565b6000604051905090565b600080fd5b600080fd5b6000819050919050565b610e0c81610df9565b8114610e1757600080fd5b50565b600081359050610e2981610e03565b92915050565b600060208284031215610e4557610e44610def565b5b6000610e5384828501610e1a565b91505092915050565b600073ffffffffffffffffffffffffffffffffffffffff82169050919050565b6000610e8782610e5c565b9050919050565b610e9781610e7c565b82525050565b6000602082019050610eb26000830184610e8e565b92915050565b600080fd5b600080fd5b6000601f19601f8301169050919050565b7f4e487b7100000000000000000000000000000000000000000000000000000000600052604160045260246000fd5b610f0b82610ec2565b810181811067ffffffffffffffff82111715610f2a57610f29610ed3565b5b80604052505050565b6000610f3d610de5565b9050610f498282610f02565b919050565b600067ffffffffffffffff821115610f6957610f68610ed3565b5b610f7282610ec2565b9050602081019050919050565b82818337600083830152505050565b6000610fa1610f9c84610f4e565b610f33565b905082815260208101848484011115610fbd57610fbc610ebd565b5b610fc8848285610f7f565b509392505050565b600082601f830112610fe557610fe4610eb8565b5b8135610ff5848260208601610f8e565b91505092915050565b6000806040838503121561101557611014610def565b5b600061102385828601610e1a565b925050602083013567ffffffffffffffff81111561104457611043610df4565b5b61105085828601610fd0565b9150509250929050565b6000819050919050565b61106d8161105a565b811461107857600080fd5b50565b60008135905061108a81611064565b92915050565b600080604083850312156110a7576110a6610def565b5b60006110b585828601610e1a565b92505060206110c68582860161107b565b9150509250929050565b600067ffffffffffffffff8211156110eb576110ea610ed3565b5b6110f482610ec2565b9050602081019050919050565b600061111461110f846110d0565b610f33565b9050828152602081018484840111156111305761112f610ebd565b5b61113b848285610f7f565b509392505050565b600082601f83011261115857611157610eb8565b5b8135611168848260208601611101565b91505092915050565b6000806040838503121561118857611187610def565b5b600061119685828601610e1a565b925050602083013567ffffffffffffffff8111156111b7576111b6610df4565b5b6111c385828601611143565b9150509250929050565b60008115159050919050565b6111e2816111cd565b82525050565b60006020820190506111fd60008301846111d9565b92915050565b600081519050919050565b600082825260208201905092915050565b60005b8381101561123d578082015181840152602081019050611222565b8381111561124c576000848401525b50505050565b600061125d82611203565b611267818561120e565b935061127781856020860161121f565b61128081610ec2565b840191505092915050565b600060208201905081810360008301526112a58184611252565b905092915050565b6112b6816111cd565b81146112c157600080fd5b50565b6000813590506112d3816112ad565b92915050565b600080604083850312156112f0576112ef610def565b5b60006112fe85828601610e1a565b925050602061130f858286016112c4565b9150509250929050565b6000819050919050565b61132c81611319565b82525050565b60006020820190506113476000830184611323565b92915050565b600081519050919050565b600082825260208201905092915050565b60006113748261134d565b61137e8185611358565b935061138e81856020860161121f565b61139781610ec2565b840191505092915050565b600060208201905081810360008301526113bc8184611369565b905092915050565b6113cd81610e7c565b81146113d857600080fd5b50565b6000813590506113ea816113c4565b92915050565b6000806040838503121561140757611406610def565b5b600061141585828601610e1a565b9250506020611426858286016113db565b9150509250929050565b6114398161105a565b82525050565b60006020820190506114546000830184611430565b92915050565b61146381611319565b811461146e57600080fd5b50565b6000813590506114808161145a565b92915050565b6000806040838503121561149d5761149c610def565b5b60006114ab85828601610e1a565b92505060206114bc85828601611471565b9150509250929050565b6000602082840312156114dc576114db610def565b5b60006114ea848285016113db565b91505092915050565b7f4f776e61626c653a2063616c6c6572206973206e6f7420746865206f776e6572600082015250565b600061152960208361120e565b9150611534826114f3565b602082019050919050565b600060208201905081810360008301526115588161151c565b9050919050565b61156881610df9565b82525050565b6000604082019050611583600083018561155f565b81810360208301526115958184611369565b90509392505050565b60006040820190506115b3600083018561155f565b6115c06020830184611430565b9392505050565b60006040820190506115dc600083018561155f565b81810360208301526115ee8184611252565b90509392505050565b7f4e487b7100000000000000000000000000000000000000000000000000000000600052602260045260246000fd5b6000600282049050600182168061163e57607f821691505b60208210811415611652576116516115f7565b5b50919050565b600060408201905061166d600083018561155f565b61167a60208301846111d9565b9392505050565b6000604082019050611696600083018561155f565b6116a36020830184610e8e565b9392505050565b60006040820190506116bf600083018561155f565b6116cc6020830184611323565b9392505050565b7f4f776e61626c653a206e6577206f776e657220697320746865207a65726f206160008201527f6464726573730000000000000000000000000000000000000000000000000000602082015250565b600061172f60268361120e565b915061173a826116d3565b604082019050919050565b6000602082019050818103600083015261175e81611722565b905091905056fea26469706673582212207ea3ba1008317c1a3bd583a3b513501ffb493a2fee92ab4b5ddb76191eba8c4864736f6c634300080b0033",
  "linkReferences": {},
  "deployedLinkReferences": {}
}