{
  "_format": "hh-sol-artifact-1",
  "contractName": "UserData",
  "sourceName": "contracts/UserData/UserData.sol",
  "abi": [
    {
      "anonymous": false,
      "inputs": [
        {
          "indexed": true,
          "internalType": "address",
          "name": "userAddr",
          "type": "address"
        },
        {
          "indexed": true,
          "internalType": "string",
          "name": "info",
          "type": "string"
        }
      ],
      "name": "SetInfo",
      "type": "event"
    },
    {
      "anonymous": false,
      "inputs": [
        {
          "indexed": true,
          "internalType": "address",
          "name": "userAddr",
          "type": "address"
        },
        {
          "indexed": true,
          "internalType": "string",
          "name": "username",
          "type": "string"
        }
      ],
      "name": "SetUsername",
      "type": "event"
    },
    {
      "anonymous": false,
      "inputs": [
        {
          "indexed": true,
          "internalType": "string",
          "name": "username",
          "type": "string"
        },
        {
          "indexed": true,
          "internalType": "address",
          "name": "userAddr",
          "type": "address"
        }
      ],
      "name": "UsernameAssigned",
      "type": "event"
    },
    {
      "inputs": [
        {
          "internalType": "bytes32",
          "name": "tag",
          "type": "bytes32"
        }
      ],
      "name": "ContDataGetAddress",
      "outputs": [
        {
          "internalType": "address",
          "name": "data",
          "type": "address"
        }
      ],
      "stateMutability": "view",
      "type": "function"
    },
    {
      "inputs": [
        {
          "internalType": "bytes32",
          "name": "tag",
          "type": "bytes32"
        }
      ],
      "name": "ContDataGetBool",
      "outputs": [
        {
          "internalType": "bool",
          "name": "data",
          "type": "bool"
        }
      ],
      "stateMutability": "view",
      "type": "function"
    },
    {
      "inputs": [
        {
          "internalType": "bytes32",
          "name": "tag",
          "type": "bytes32"
        }
      ],
      "name": "ContDataGetBytes",
      "outputs": [
        {
          "internalType": "bytes",
          "name": "data",
          "type": "bytes"
        }
      ],
      "stateMutability": "view",
      "type": "function"
    },
    {
      "inputs": [
        {
          "internalType": "bytes32",
          "name": "tag",
          "type": "bytes32"
        }
      ],
      "name": "ContDataGetInt",
      "outputs": [
        {
          "internalType": "int256",
          "name": "data",
          "type": "int256"
        }
      ],
      "stateMutability": "view",
      "type": "function"
    },
    {
      "inputs": [
        {
          "internalType": "bytes32",
          "name": "tag",
          "type": "bytes32"
        }
      ],
      "name": "ContDataGetString",
      "outputs": [
        {
          "internalType": "string",
          "name": "data",
          "type": "string"
        }
      ],
      "stateMutability": "view",
      "type": "function"
    },
    {
      "inputs": [
        {
          "internalType": "bytes32",
          "name": "tag",
          "type": "bytes32"
        }
      ],
      "name": "ContDataGetUint",
      "outputs": [
        {
          "internalType": "uint256",
          "name": "data",
          "type": "uint256"
        }
      ],
      "stateMutability": "view",
      "type": "function"
    },
    {
      "inputs": [
        {
          "internalType": "string",
          "name": "username",
          "type": "string"
        },
        {
          "internalType": "address",
          "name": "userAddr",
          "type": "address"
        }
      ],
      "name": "_assignUsername",
      "outputs": [],
      "stateMutability": "nonpayable",
      "type": "function"
    },
    {
      "inputs": [
        {
          "internalType": "address",
          "name": "userAddr",
          "type": "address"
        },
        {
          "internalType": "string",
          "name": "username",
          "type": "string"
        }
      ],
      "name": "_setInfo",
      "outputs": [],
      "stateMutability": "nonpayable",
      "type": "function"
    },
    {
      "inputs": [
        {
          "internalType": "address",
          "name": "userAddr",
          "type": "address"
        },
        {
          "internalType": "string",
          "name": "username",
          "type": "string"
        }
      ],
      "name": "_setUsername",
      "outputs": [],
      "stateMutability": "nonpayable",
      "type": "function"
    },
    {
      "inputs": [
        {
          "internalType": "address",
          "name": "",
          "type": "address"
        }
      ],
      "name": "addrToUser",
      "outputs": [
        {
          "internalType": "string",
          "name": "username",
          "type": "string"
        },
        {
          "internalType": "string",
          "name": "info",
          "type": "string"
        }
      ],
      "stateMutability": "view",
      "type": "function"
    },
    {
      "inputs": [],
      "name": "initialize",
      "outputs": [],
      "stateMutability": "nonpayable",
      "type": "function"
    }
  ],
  "bytecode": "0x608060405234801561001057600080fd5b5061187d806100206000396000f3fe608060405234801561001057600080fd5b50600436106100a95760003560e01c8063638e232911610071578063638e23291461016257806366ba5289146101925780638129fc1c146101c25780638990a663146101cc57806394f6552a146101fc578063cfcddeb01461022c576100a9565b806305c063b4146100ae578063190f7478146100de5780632d19db6c1461010e5780632fa873f71461012a57806344d7c2ea14610146575b600080fd5b6100c860048036038101906100c39190610d7d565b61025d565b6040516100d59190610e43565b60405180910390f35b6100f860048036038101906100f39190610d7d565b610307565b6040516101059190610ea6565b60405180910390f35b61012860048036038101906101239190611022565b6103ab565b005b610144600480360381019061013f919061107e565b6104ad565b005b610160600480360381019061015b9190611022565b61060e565b005b61017c60048036038101906101779190610d7d565b610710565b604051610189919061112f565b60405180910390f35b6101ac60048036038101906101a79190610d7d565b6107ba565b6040516101b9919061116c565b60405180910390f35b6101ca61085e565b005b6101e660048036038101906101e19190610d7d565b61094a565b6040516101f391906111a0565b60405180910390f35b61021660048036038101906102119190610d7d565b6109ee565b60405161022391906111d4565b60405180910390f35b610246600480360381019061024191906111ef565b610a92565b60405161025492919061121c565b60405180910390f35b6060600060029054906101000a900473ffffffffffffffffffffffffffffffffffffffff1673ffffffffffffffffffffffffffffffffffffffff1663986e791a836040518263ffffffff1660e01b81526004016102ba9190611262565b600060405180830381865afa1580156102d7573d6000803e3d6000fd5b505050506040513d6000823e3d601f19601f8201168201806040525081019061030091906112ed565b9050919050565b60008060029054906101000a900473ffffffffffffffffffffffffffffffffffffffff1673ffffffffffffffffffffffffffffffffffffffff166321f8a721836040518263ffffffff1660e01b81526004016103639190611262565b602060405180830381865afa158015610380573d6000803e3d6000fd5b505050506040513d601f19601f820116820180604052508101906103a4919061134b565b9050919050565b6040518060400160405280600e81526020017f416363657373557365724461746100000000000000000000000000000000000081525061041281336040516020016103f79291906113fc565b604051602081830303815290604052805190602001206107ba565b610451576040517f08c379a000000000000000000000000000000000000000000000000000000000815260040161044890611496565b60405180910390fd5b81600260008573ffffffffffffffffffffffffffffffffffffffff1673ffffffffffffffffffffffffffffffffffffffff16815260200190815260200160002060010190805190602001906104a7929190610c90565b50505050565b6040518060400160405280600e81526020017f416363657373557365724461746100000000000000000000000000000000000081525061051481336040516020016104f99291906113fc565b604051602081830303815290604052805190602001206107ba565b610553576040517f08c379a000000000000000000000000000000000000000000000000000000000815260040161054a90611496565b60405180910390fd5b8160018460405161056491906114b6565b908152602001604051809103902060006101000a81548173ffffffffffffffffffffffffffffffffffffffff021916908373ffffffffffffffffffffffffffffffffffffffff1602179055508173ffffffffffffffffffffffffffffffffffffffff16836040516105d591906114b6565b60405180910390207f5ad966acfc828a103764cbb27fd656db5bcd66374ae66ce52448a740ca6ea04a60405160405180910390a3505050565b6040518060400160405280600e81526020017f4163636573735573657244617461000000000000000000000000000000000000815250610675813360405160200161065a9291906113fc565b604051602081830303815290604052805190602001206107ba565b6106b4576040517f08c379a00000000000000000000000000000000000000000000000000000000081526004016106ab90611496565b60405180910390fd5b81600260008573ffffffffffffffffffffffffffffffffffffffff1673ffffffffffffffffffffffffffffffffffffffff168152602001908152602001600020600001908051906020019061070a929190610c90565b50505050565b6060600060029054906101000a900473ffffffffffffffffffffffffffffffffffffffff1673ffffffffffffffffffffffffffffffffffffffff1663c031a180836040518263ffffffff1660e01b815260040161076d9190611262565b600060405180830381865afa15801561078a573d6000803e3d6000fd5b505050506040513d6000823e3d601f19601f820116820180604052508101906107b3919061156e565b9050919050565b60008060029054906101000a900473ffffffffffffffffffffffffffffffffffffffff1673ffffffffffffffffffffffffffffffffffffffff16637ae1cfca836040518263ffffffff1660e01b81526004016108169190611262565b602060405180830381865afa158015610833573d6000803e3d6000fd5b505050506040513d601f19601f8201168201806040525081019061085791906115e3565b9050919050565b600060019054906101000a900460ff166108865760008054906101000a900460ff161561088f565b61088e610bc6565b5b6108ce576040517f08c379a00000000000000000000000000000000000000000000000000000000081526004016108c590611682565b60405180910390fd5b60008060019054906101000a900460ff16159050801561091e576001600060016101000a81548160ff02191690831515021790555060016000806101000a81548160ff0219169083151502179055505b610926610bd7565b80156109475760008060016101000a81548160ff0219169083151502179055505b50565b60008060029054906101000a900473ffffffffffffffffffffffffffffffffffffffff1673ffffffffffffffffffffffffffffffffffffffff1663bd02d0f5836040518263ffffffff1660e01b81526004016109a69190611262565b602060405180830381865afa1580156109c3573d6000803e3d6000fd5b505050506040513d601f19601f820116820180604052508101906109e791906116ce565b9050919050565b60008060029054906101000a900473ffffffffffffffffffffffffffffffffffffffff1673ffffffffffffffffffffffffffffffffffffffff1663dc97d962836040518263ffffffff1660e01b8152600401610a4a9190611262565b602060405180830381865afa158015610a67573d6000803e3d6000fd5b505050506040513d601f19601f82011682018060405250810190610a8b9190611727565b9050919050565b6002602052806000526040600020600091509050806000018054610ab590611783565b80601f0160208091040260200160405190810160405280929190818152602001828054610ae190611783565b8015610b2e5780601f10610b0357610100808354040283529160200191610b2e565b820191906000526020600020905b815481529060010190602001808311610b1157829003601f168201915b505050505090806001018054610b4390611783565b80601f0160208091040260200160405190810160405280929190818152602001828054610b6f90611783565b8015610bbc5780601f10610b9157610100808354040283529160200191610bbc565b820191906000526020600020905b815481529060010190602001808311610b9f57829003601f168201915b5050505050905082565b6000610bd130610c7d565b15905090565b600060019054906101000a900460ff16610c26576040517f08c379a0000000000000000000000000000000000000000000000000000000008152600401610c1d90611827565b60405180910390fd5b73a4af290ca6ea32e6e909f8cbb4f4dc14ce32b778600060026101000a81548173ffffffffffffffffffffffffffffffffffffffff021916908373ffffffffffffffffffffffffffffffffffffffff160217905550565b600080823b905060008111915050919050565b828054610c9c90611783565b90600052602060002090601f016020900481019282610cbe5760008555610d05565b82601f10610cd757805160ff1916838001178555610d05565b82800160010185558215610d05579182015b82811115610d04578251825591602001919060010190610ce9565b5b509050610d129190610d16565b5090565b5b80821115610d2f576000816000905550600101610d17565b5090565b6000604051905090565b600080fd5b600080fd5b6000819050919050565b610d5a81610d47565b8114610d6557600080fd5b50565b600081359050610d7781610d51565b92915050565b600060208284031215610d9357610d92610d3d565b5b6000610da184828501610d68565b91505092915050565b600081519050919050565b600082825260208201905092915050565b60005b83811015610de4578082015181840152602081019050610dc9565b83811115610df3576000848401525b50505050565b6000601f19601f8301169050919050565b6000610e1582610daa565b610e1f8185610db5565b9350610e2f818560208601610dc6565b610e3881610df9565b840191505092915050565b60006020820190508181036000830152610e5d8184610e0a565b905092915050565b600073ffffffffffffffffffffffffffffffffffffffff82169050919050565b6000610e9082610e65565b9050919050565b610ea081610e85565b82525050565b6000602082019050610ebb6000830184610e97565b92915050565b610eca81610e85565b8114610ed557600080fd5b50565b600081359050610ee781610ec1565b92915050565b600080fd5b600080fd5b7f4e487b7100000000000000000000000000000000000000000000000000000000600052604160045260246000fd5b610f2f82610df9565b810181811067ffffffffffffffff82111715610f4e57610f4d610ef7565b5b80604052505050565b6000610f61610d33565b9050610f6d8282610f26565b919050565b600067ffffffffffffffff821115610f8d57610f8c610ef7565b5b610f9682610df9565b9050602081019050919050565b82818337600083830152505050565b6000610fc5610fc084610f72565b610f57565b905082815260208101848484011115610fe157610fe0610ef2565b5b610fec848285610fa3565b509392505050565b600082601f83011261100957611008610eed565b5b8135611019848260208601610fb2565b91505092915050565b6000806040838503121561103957611038610d3d565b5b600061104785828601610ed8565b925050602083013567ffffffffffffffff81111561106857611067610d42565b5b61107485828601610ff4565b9150509250929050565b6000806040838503121561109557611094610d3d565b5b600083013567ffffffffffffffff8111156110b3576110b2610d42565b5b6110bf85828601610ff4565b92505060206110d085828601610ed8565b9150509250929050565b600081519050919050565b600082825260208201905092915050565b6000611101826110da565b61110b81856110e5565b935061111b818560208601610dc6565b61112481610df9565b840191505092915050565b6000602082019050818103600083015261114981846110f6565b905092915050565b60008115159050919050565b61116681611151565b82525050565b6000602082019050611181600083018461115d565b92915050565b6000819050919050565b61119a81611187565b82525050565b60006020820190506111b56000830184611191565b92915050565b6000819050919050565b6111ce816111bb565b82525050565b60006020820190506111e960008301846111c5565b92915050565b60006020828403121561120557611204610d3d565b5b600061121384828501610ed8565b91505092915050565b600060408201905081810360008301526112368185610e0a565b9050818103602083015261124a8184610e0a565b90509392505050565b61125c81610d47565b82525050565b60006020820190506112776000830184611253565b92915050565b600061129061128b84610f72565b610f57565b9050828152602081018484840111156112ac576112ab610ef2565b5b6112b7848285610dc6565b509392505050565b600082601f8301126112d4576112d3610eed565b5b81516112e484826020860161127d565b91505092915050565b60006020828403121561130357611302610d3d565b5b600082015167ffffffffffffffff81111561132157611320610d42565b5b61132d848285016112bf565b91505092915050565b60008151905061134581610ec1565b92915050565b60006020828403121561136157611360610d3d565b5b600061136f84828501611336565b91505092915050565b600081905092915050565b600061138e82610daa565b6113988185611378565b93506113a8818560208601610dc6565b80840191505092915050565b60008160601b9050919050565b60006113cc826113b4565b9050919050565b60006113de826113c1565b9050919050565b6113f66113f182610e85565b6113d3565b82525050565b60006114088285611383565b915061141482846113e5565b6014820191508190509392505050565b7f726573747269637465642061636365737320746f20737065636966696320726f60008201527f6c6c000000000000000000000000000000000000000000000000000000000000602082015250565b6000611480602283610db5565b915061148b82611424565b604082019050919050565b600060208201905081810360008301526114af81611473565b9050919050565b60006114c28284611383565b915081905092915050565b600067ffffffffffffffff8211156114e8576114e7610ef7565b5b6114f182610df9565b9050602081019050919050565b600061151161150c846114cd565b610f57565b90508281526020810184848401111561152d5761152c610ef2565b5b611538848285610dc6565b509392505050565b600082601f83011261155557611554610eed565b5b81516115658482602086016114fe565b91505092915050565b60006020828403121561158457611583610d3d565b5b600082015167ffffffffffffffff8111156115a2576115a1610d42565b5b6115ae84828501611540565b91505092915050565b6115c081611151565b81146115cb57600080fd5b50565b6000815190506115dd816115b7565b92915050565b6000602082840312156115f9576115f8610d3d565b5b6000611607848285016115ce565b91505092915050565b7f496e697469616c697a61626c653a20636f6e747261637420697320616c72656160008201527f647920696e697469616c697a6564000000000000000000000000000000000000602082015250565b600061166c602e83610db5565b915061167782611610565b604082019050919050565b6000602082019050818103600083015261169b8161165f565b9050919050565b6116ab81611187565b81146116b657600080fd5b50565b6000815190506116c8816116a2565b92915050565b6000602082840312156116e4576116e3610d3d565b5b60006116f2848285016116b9565b91505092915050565b611704816111bb565b811461170f57600080fd5b50565b600081519050611721816116fb565b92915050565b60006020828403121561173d5761173c610d3d565b5b600061174b84828501611712565b91505092915050565b7f4e487b7100000000000000000000000000000000000000000000000000000000600052602260045260246000fd5b6000600282049050600182168061179b57607f821691505b602082108114156117af576117ae611754565b5b50919050565b7f496e697469616c697a61626c653a20636f6e7472616374206973206e6f74206960008201527f6e697469616c697a696e67000000000000000000000000000000000000000000602082015250565b6000611811602b83610db5565b915061181c826117b5565b604082019050919050565b6000602082019050818103600083015261184081611804565b905091905056fea2646970667358221220c508f85224fc616c8938cd6f57328c3bdb620fbeb25c2bad5cfbcfc12616f4a964736f6c634300080b0033",
  "linkReferences": {},
  "deployedLinkReferences": {}
}